:020000040000FA
:06000000E0EF07F0120022
:020006001200E6
:0800080007EF00F01200D8CF51
:10001000E4FFE0CFE4FFE46EDACFE4FFE2CFDAFF03
:10002000E9CFE4FFEACFE4FFF6CFE4FFF7CFE4FF48
:10003000F5CFE4FFF3CFE4FFF4CFE4FFFACFE4FF22
:1000400000EE00F00B0EE80403E3EECFE4FFFBD775
:1000500000EE0BF0080EE80403E3EECFE4FFFBD75D
:10006000E652FECFE2F1FDCFE3F1E2CFE0F1E1CFE6
:10007000E1F100C1E9FF01C1EAFF020EE926000E2D
:10008000EA22EF6AE2C115F015C016F0156A010107
:10009000E35100011510136E16C014F000C1E9FF02
:1000A00001C1EAFF040E13C0EBFF050E14C0EBFF05
:1000B000E0C115F015C016F0156A0101E15100010B
:1000C0001510136E16C014F000C1E9FF01C1EAFF5C
:1000D000060E13C0EBFF070E14C0EBFF00C1E9FFD3
:1000E00001C1EAFF040EE926000EEA22EECFDEF19E
:1000F000EDCFDFF100C1E9FF01C1EAFF060EE926FD
:10010000000EEA22EECFDCF1EDCFDDF11A0EE66E45
:10011000010EE66E7EEC01F0E552E552F3CFE4F11C
:10012000F4CFE5F1720EE66E020EE66E00C1E6FF58
:1001300001C1E6FF1A0EE66E010EE66EF2EC01F06A
:10014000136E060EE15E1350E4C100F1E5C101F14A
:1001500000C1E9FF01C1EAFF040EE926000EEA2210
:10016000EECF13F0EFCF14F013500101E36F00C195
:10017000E9FF01C1EAFF040EE926000EEA22EECFF4
:1001800013F0EFCF14F014C013F0146A13C0E2F1AF
:1001900000C1E9FF01C1EAFF060EE926000EEA22CE
:1001A000EECF13F0EFCF14F013500101E16F00C157
:1001B000E9FF01C1EAFF060EE926000EEA22EECFB2
:1001C00013F0EFCF14F014C013F0146A13C0E0F171
:1001D000E2C1E8FFFE6EE3C1E8FFFD6EE0C1E8FFAB
:1001E000E26EE1C1E8FFE16E0101D82B000ED923D8
:1001F000DA23DB232ED8E55200EE12F0080EE804D5
:1002000003E3E5CFEDFFFBD700EE0AF00B0EE804A9
:1002100003E3E5CFEDFFFBD7E5CFFAFFE5CFF4FF32
:10022000E5CFF3FFE5CFF5FFE5CFF7FFE5CFF6FF2D
:10023000E5CFEAFFE5CFE9FFE5CFDAFFE550E5CF0F
:10024000E0FFE5CFD8FF1000F250040B01E0010EF3
:060250001200F2941200FE
:0A0256000200F80F0000D8010000BC
:1002600008000000E80F0000BE01000010000000C0
:100270001200D9CFE6FFE1CFD9FF040EE126FD0E33
:10028000DBCFDEFFDBCFDDFFFB0EDBCF06F0FC0EAE
:10029000DBCF07F0020E06C0DBFF030E07C0DBFF5B
:1002A000DECFE9FFDDCFEAFF020EE926000EEA22EB
:1002B000EFCF0BF0020EDBCFE9FF030EDBCFEAFF3F
:1002C000020EE926000EEA22EF50E76E0B18E8AEA8
:1002D00002D00B3403D0E750D8800B5403E2010E58
:1002E000F36E01D0F36AF46A040EE15C02E2E16AA3
:1002F000E552E16EE552E7CFD9FF1200D9CFE6FF14
:10030000E1CFD9FF020EE126FD0EDBCFE9FFFE0EA5
:10031000DBCFEAFFEECFDEFFEDCFDDFFFD0EDBCF63
:10032000E9FFFE0EDBCFEAFFEE50EFCFEAFFE96E0A
:10033000EE50ED1025E1FD0EDBCFE9FFFE0EDBCF29
:10034000EAFFEE50EFCFEAFFE96EEECF0BF0EFCF12
:100350000CF0FD0EDBCFE9FFFE0EDBCFEAFF0BC09A
:10036000EEFF0CC0EDFFFD0EDBCFE9FFFE0EDBCF95
:10037000EAFF020EE926000EEA22EE6AED6A18D0C4
:10038000FD0EDBCFE9FFFE0EDBCFEAFFEE50EFCF35
:10039000EAFFE96EEECF0BF0EFCF0CF0FD0EDBCFF6
:1003A000E9FFFE0EDBCFEAFF0BC0EEFF0CC0EDFF56
:1003B000DECFE9FFDDCFEAFF000EEF6A010EEB6A48
:1003C000DECF0BF0DDCF0CF00BC0F3FF0CC0F4FF61
:1003D000020EE15C02E2E16AE552E16EE552E7CF2E
:1003E000D9FF1200D9CFE6FFE1CFD9FF060EE126F3
:1003F000FB0EDBCFDEFFDBCFDDFFFD0EDBCFE9FF4A
:10040000FE0EDBCFEAFFEE50ED1026E1FD0EDBCF56
:10041000E9FFFE0EDBCFEAFF020EE926000EEA221C
:10042000EE50ED1019E1FD0EDBCFE9FFFE0EDBCF44
:10043000EAFFDECFEEFFDDCFEDFFFD0EDBCFE9FF04
:10044000FE0EDBCFEAFF020EE926000EEA22DECF27
:10045000EEFFDDCFEDFFAED0FD0EDBCFE9FFFE0EF0
:10046000DBCFEAFF020EEECFDBFF030EEDCFDBFFAB
:10047000F90EDBCF0DF0FA0EDBCF0EF0020EDBCF64
:10048000E6FF030EDBCFE6FFDECFE6FFDDCFE6FFC4
:1004900004D00EC0FAFF0D50F96EFBDFE552E552B5
:1004A000E552E552F3CF0BF0F4CF0CF0010EF31848
:1004B00001E10C5033E0020EDBCFE9FF030EDBCF8E
:1004C000EAFFEE50ED1019E1020EDBCFE9FF030E5B
:1004D000DBCFEAFFDECFEEFFDDCFEDFFFD0EDBCFA2
:1004E000E9FFFE0EDBCFEAFF020EE926000EEA224C
:1004F000DECFEEFFDDCFEDFF11D0020EDBCF06F039
:10050000030EDBCF07F0040E06C0DBFF050E07C0AD
:10051000DBFF020EDBCFE9FF030EA2D7F90EDBCF24
:100520000DF0FA0EDBCF0EF0020EDBCFE6FF030E6E
:10053000DBCFE6FFDECFE6FFDDCFE6FF04D00EC067
:10054000FAFF0D50F96EFBDFE552E552E552E55238
:10055000F350F4102FE0020EDBCF0BF0030EDBCFD5
:100560000CF0FD0EDBCFE9FFFE0EDBCFEAFFEECF96
:100570000DF0EFCF0EF00D500B1808E10E500C18D7
:1005800005E1FD0EDBCFE9FFFE0E04D0040EDBCF4C
:10059000E9FF050EDBCFEAFFDECFEEFFDDCFEDFF9B
:1005A000DECFE9FFDDCFEAFF020EDBCFEEFF030E69
:1005B000DBCFEDFF060EE15C02E2E16AE552E16E9F
:0805C000E552E7CFD9FF12005C
:0805C800D9CFE6FFE1CFD9FF16
:1005D000FD0EDBCFE9FFFE0EDBCFEAFFEECF0BF027
:1005E000EFCF0CF0120E0B1801E10C5027E00E0EAD
:1005F0000B1801E10C500CE00B5020E10C501EE1F7
:10060000FD0EDBCFE9FFFE0EDBCFEAFF0E0E14D0AE
:10061000FD0EDBCFE9FFFE0EDBCFEAFF020EE9267F
:10062000000EEA22EF500A0809E1FD0EDBCFE9FFD8
:10063000FE0EDBCFEAFF120EEE6EED6AE552E7CF5B
:10064000D9FF1200D9CFE6FFE1CFD9FFFD0EDBCFF6
:10065000E9FFFE0EDBCFEAFFEECF0BF0EFCF0CF0A1
:100660002A0E0B1801E10C5001E197D0230E0B1854
:1006700001E10C5021E0200E0B1801E10C501CE0B0
:100680000B5001E0FED00C5001E0FBD0FD0EDBCFA3
:10069000E9FFFE0EDBCFEAFF020EE926000EEA229A
:1006A000010EEF6E46EC07F0FD0EDBCFE9FFFE0E0C
:1006B000DBCFEAFF200EB7D0FD0EDBCFE9FFFE0E49
:1006C000DBCFEAFF030EE926000EEA22EECF0FF0A1
:1006D000EECF10F0EECF11F0EFCF12F00FC0E6FF2B
:1006E00010C0E6FF11C0E6FF12C0E6FFC7EC07F03E
:1006F000E552E7CF12F0E552E7CF11F0E552E7CF30
:1007000010F0E552E7CF0FF000010F50045C0B6EC4
:10071000105005580C6E115006580D6E12500758A7
:100720000E6ED880E80E0B54010E0C54000E0D54C2
:10073000000E0E5408E3FD0EDBCFE9FFFE0EDBCF0B
:10074000EAFF230E70D048EC07F0C7EC07F004C0B6
:100750000BF005C00CF006C00DF007C00EF0FD0E4A
:10076000DBCFE9FFFE0EDBCFEAFF030EE926000E2A
:10077000EA2204C0EEFF0CC0EEFF0DC0EEFF0EC07B
:10078000EEFFFD0EDBCFE9FFFE0EDBCFEAFF020E30
:10079000E926000EEA22020EEF6EFD0EDBCFE9FF26
:1007A000FE0EDBCFEAFF030EE926000EEA22EECFB3
:1007B0000FF0EECF10F0EECF11F0EFCF12F00FC030
:1007C000E6FF10C0E6FF11C0E6FF12C0E6FFC7EC6F
:1007D00007F0E552E7CF12F0E552E7CF11F0E5520E
:1007E000E7CF10F0E552E7CF0FF000010F50045CA7
:1007F0000B6E105005580C6E115006580D6E1250AD
:1008000007580E6ED880E80E0B54010E0C54000EE3
:100810000D54000E0E540AE3FD0EDBCFE9FFFE0E71
:10082000DBCFEAFF2A0EEE6EED6A2BD046EC07F026
:10083000C7EC07F004C00BF005C00CF006C00DF0CB
:1008400007C00EF0FD0EDBCFE9FFFE0EDBCFEAFFA7
:10085000030EE926000EEA2204C0EEFF0CC0EEFFF4
:100860000DC0EEFF0EC0EEFFFD0EDBCFE9FFFE0E6A
:10087000DBCFEAFF020EE926000EEA22010EEF6E40
:0A0880001BD7E552E7CFD9FF1200A5
:06088A00D9CFE6FFE1CF2B
:10089000D9FFFB0EDBCF0BF0FC0EDBCF0CF0030E11
:1008A000D8900B360C36E806FBE1FD0EDB500B242E
:1008B000E96EFE0EDB500C20EA6E040EE926000EF7
:1008C000EA22F90EDBCFEEFFFA0EDBCFEDFFFB0ED7
:1008D000DBCF0BF0FC0EDBCF0CF0030ED8900B3609
:1008E0000C36E806FBE1FD0EDB500B24E96EFE0E34
:1008F000DB500C20EA6EEE6AED6AFB0EDBCF0DF0EA
:10090000FC0EDBCF0EF00D06000E0E5A500E0E023E
:10091000F3CF0EF00D02F3CF0DF0F4500E261E0EA5
:100920000D26010E0E22FB0EDBCF0BF0FC0EDBCFF3
:100930000CF0030ED8900B360C36E806FBE1FD0EEA
:10094000DB500B24E96EFE0EDB500C20EA6E060E27
:10095000E926000EEA220DC0EEFF0EC0EDFFFB0EF1
:10096000DBCF0BF0FC0EDBCF0CF0030ED8900B3678
:100970000C36E806FBE1FD0EDB500B24E96EFE0EA3
:10098000DB500C20EA6E020EE926000EEA22EF6A26
:10099000FB0EDBCF0BF0FC0EDBCF0CF0030ED89080
:1009A0000B360C36E806FBE1FD0EDB500B24E96E3E
:1009B000FE0EDB500C20EA6E030EE926000EEA2242
:1009C000FB0EDBCFEFFF720EE66E020EE66EFB0E45
:1009D000DBCF0DF0FC0EDBCF0EF0030ED8900D3602
:1009E0000E36E806FBE1FD0EDB500D240B6EFE0E0D
:1009F000DB500E200C6E0BC0E6FFE66E1A0EE66EA4
:100A0000010EE66EF2EC01F00F6E060EE15E0F5085
:100A1000E552E7CFD9FF120001011A6B1B6B1C6B6B
:100A20001D6B020E006F010E016F00C1E9FFEA6E3F
:100A3000EE6AED6A760EE66E0A0EE66E010EE66E60
:100A4000E66A020EE66E010EE66E1FDF0B6E060E04
:100A5000E15E0B50B60EE66E0A0EE66E020EE66E14
:100A6000E66A020EE66E010EE66E0FDF0B6E060EF4
:100A7000E15E0B501200D9CFE6FFE1CFD9FF020EA5
:100A8000E126DE6ADD6AD9CFE9FFDACFEAFFFF0EA1
:100A9000EE1801E1ED5005E0DF2A010EF4E3DB2A58
:100AA000F2D7020EE15C02E2E16AE552E16EE55244
:100AB000E7CFD9FF1200D9CFE6FFE1CFD9FF020E71
:100AC000E126DE6ADD6AD9CFE9FFDACFEAFFFF0E61
:100AD000EE1801E1ED5005E0DF2A010EF4E3DB2A18
:100AE000F2D7020EE15C02E2E16AE552E16EE55204
:060AF000E7CFD9FF120060
:0A0AF600D9CFE6FFE1CFD9FF9494B9
:100B0000FD0EDBCFE9FFFE0EDBCFEAFFEF6AE55219
:100B1000E7CFD9FF12008284120082941200D9CF4D
:100B2000E6FFE1CFD9FFFD0EDBCFE9FFFE0EDBCF05
:100B3000EAFFEF50010A3EE0010A01E0D1D0FD0ECC
:100B4000DBCFE9FFFE0EDBCFEAFF010EEB6A020E00
:100B5000EB6AC7EC07F004C00BF005C00CF006C050
:100B60000DF007C00EF0FD0EDBCFE9FFFE0EDBCF70
:100B7000EAFF030EE926000EEA2204C0EEFF0CC0D5
:100B8000EEFF0DC0EEFF0EC0EEFFFD0EDBCFE9FF66
:100B9000FE0EDBCFEAFFEE52EE50EFCFEAFFE96E3A
:100BA000BE0EE926010EEA22EF50E66E69EC07F070
:100BB000E5528ED0FD0EDBCFE9FFFE0EDBCFEAFF64
:100BC000030EE926000EEA22EECF0FF0EECF10F072
:100BD000EECF11F0EFCF12F00FC0E6FF10C0E6FF2E
:100BE00011C0E6FF12C0E6FFC7EC07F0E552E7CF01
:100BF00012F0E552E7CF11F0E552E7CF10F0E552E1
:100C0000E7CF0FF000010F50045C0B6E1050055839
:100C10000C6E115006580D6E125007580E6EE80EED
:100C20000B5C010E0C58000E0D58000E0E583AE3E6
:100C3000C7EC07F004C00BF005C00CF006C00DF0C7
:100C400007C00EF0FD0EDBCFE9FFFE0EDBCFEAFFA3
:100C5000030EE926000EEA2204C0EEFF0CC0EEFFF0
:100C60000DC0EEFF0EC0EEFFFD0EDBCFE9FFFE0E66
:100C7000DBCFEAFFEE52EE50EFCFEAFFE96EBE0E99
:100C8000E926010EEA22EF50E66E69EC07F0E55224
:100C9000FD0EDBCFE9FFFE0EDBCFEAFFEE52EE2AC0
:100CA000000EEF22FD0EDBCFE9FFFE0EDBCFEAFFE9
:100CB000EE52100EEE180CE1ED500AE1FD0EDBCF06
:100CC000E9FFFE0EDBCFEAFF010EEB6A020EEB6AD4
:100CD000FD0EDBCFE9FFFE0EDBCFEAFF010EEF6E6C
:080CE000E552E7CFD9FF120035
:080CE800D9CFE6FFE1CFD9FFEF
:100CF000FD0EDBCFE9FFFE0EDBCFEAFFEF6AFD0E54
:100D0000DBCFE9FFFE0EDBCFEAFFEE52EF6AE552E2
:100D1000E7CFD9FF1200D9CFE6FFE1CFD9FFFD0E13
:100D2000DBCFE9FFFE0EDBCFEAFFEF50010A1AE04E
:100D3000010A32E19EAA30D04AEC07F0E66EFD0EC1
:100D4000DBCFE9FFFE0EDBCFEAFFEE52E552E750C4
:100D5000EF6EFD0EDBCFE9FFFE0EDBCFEAFF010EEB
:100D6000EF6E1AD0AC50020B020A01E0010E01082E
:100D700013E0FD0EDBCFE9FFFE0EDBCFEAFFEE5204
:100D8000EF50E66EA3EC07F0E552FD0EDBCFE9FF76
:100D9000FE0EDBCFEAFFEF6AE552E7CFD9FF120084
:100DA000560EF66E020EF76E000EF86E0101090087
:100DB000F550D36F0900F550D46F03E1D36701D02C
:100DC0003DD00900F550CE6F0900F550CF6F0900F6
:100DD000F550D06F09000900F550E96E0900F55093
:100DE000EA6E090009000900F550D16F0900F550BD
:100DF000D26F09000900F6CFD5F1F7CFD6F1F8CFC1
:100E0000D7F1CEC1F6FFCFC1F7FFD0C1F8FF010186
:100E1000D15302E1D25307E00900F550EE6ED1073D
:100E2000F8E2D207F9D7D5C1F6FFD6C1F7FFD7C18F
:0E0E3000F8FF0101D307000ED45BBFD71200FC
:020E3E00D9CF0A
:100E4000E6FFE1CFD9FF020EE126DE6ADD6ADE6A47
:100E5000DD6ADECF0BF0DDCF0CF0D8900C5004E64D
:100E6000880E0B5C130E0C5805E2DF2A010EF1E32D
:100E7000DB2AEFD7020EE15C02E2E16AE552E16EA5
:100E8000E552E7CFD9FF1200939012008180120043
:040E9000819012003B
:0C0E9400D9CFE6FFDACFE6FFE1CFD9FFAF
:100EA000E2CFDAFFE652F20E0101E617ABAC03D057
:100EB000E691ABB0E681ABB4E685ABB2E687AE5067
:100EC000DF6EDF50E552E552E5CFDAFFE7CFD9FF1D
:020ED00012000E
:0E0ED200D9CFE6FFDACFE6FFE1CFD9FFE2CFBE
:100EE000DAFFE652C950DF6E9E96C69EFD0EDB50BD
:100EF000C96EC6AE02D0FF0E03D09EA6FED7000E6E
:0E0F0000E552E552E5CFDAFFE7CFD9FF120048
:020F0E00D9CF39
:100F1000E6FFDACFE6FFE1CFD9FFE2CFDAFFFD0E41
:100F2000DB507F0BD56ED76AD66AF294FD0EDBAE2E
:100F300002D0F28A01D0F29AD58EE552E5CFDAFFDF
:060F4000E7CFD9FF12000B
:0A0F4600D9CFE6FFDACFE6FFE1CFD6
:100F5000D9FFE2CFDAFFACAC04D0AC900101E6B32C
:100F6000AC80FD0EDB50AD6EE552E5CFDAFFE7CF8A
:040F7000D9FF120093
:0C0F74000101D86BD96BDA6BDB6BF28EDD
:100F8000D20EE66E87EC07F0E552F2941200D8C15B
:100F900004F0D9C105F0DAC106F0DBC107F0120098
:100FA000000EF36E00EE00F0060E01D81200EA60AB
:100FB00002D0EE6AFCD7F350E9601200EE6AFCD76B
:100FC00015EE00F025EE00F0F86A0A9CD0EC06F071
:0C0FD00003EC00F0EEEC07F0FBD7120081
:040FDC000CEC05F024
:080FE000BAEC07F0FFD7120084
:080FE8007714B3B6D4E6E73438
:080FF000F7F4F5C76397E3E194
:080FF8000000000000000000F1
:020000040030CA
:0100010008F6
:010002001EDF
:010003001EDE
:0100060001F8
:00000001FF
