:020000040000FA
:06000000F0EF07F0120012
:020006001200E6
:0600080030EF04F01200CD
:02000E000200EE
:100010000C100000DC01000004000000FC0F0000D8
:08002000BC010000100000000B
:080028001200D9CFE6FFE1CF81
:10003000D9FF040EE126FD0EDBCFDEFFDBCFDDFFB7
:10004000FB0EDBCF06F0FC0EDBCF07F0020E06C086
:10005000DBFF030E07C0DBFFDECFE9FFDDCFEAFFEA
:10006000020EE926000EEA22EFCF0BF0020EDBCFE4
:10007000E9FF030EDBCFEAFF020EE926000EEA22BB
:10008000EF50E76E0B18E8AE02D00B3403D0E75008
:10009000D8800B5403E2010EF36E01D0F36AF46AC8
:1000A000040EE15C02E2E16AE552E16EE552E7CF5F
:1000B000D9FF1200D9CFE6FFE1CFD9FF020EE1262A
:1000C000FD0EDBCFE9FFFE0EDBCFEAFFEECFDEFF5A
:1000D000EDCFDDFFFD0EDBCFE9FFFE0EDBCFEAFF4C
:1000E000EE50EFCFEAFFE96EEE50ED1025E1FD0E88
:1000F000DBCFE9FFFE0EDBCFEAFFEE50EFCFEAFFEA
:10010000E96EEECF0BF0EFCF0CF0FD0EDBCFE9FF89
:10011000FE0EDBCFEAFF0BC0EEFF0CC0EDFFFD0EC5
:10012000DBCFE9FFFE0EDBCFEAFF020EE926000E71
:10013000EA22EE6AED6A18D0FD0EDBCFE9FFFE0E73
:10014000DBCFEAFFEE50EFCFEAFFE96EEECF0BF028
:10015000EFCF0CF0FD0EDBCFE9FFFE0EDBCFEAFFA9
:100160000BC0EEFF0CC0EDFFDECFE9FFDDCFEAFFF5
:10017000000EEF6A010EEB6ADECF0BF0DDCF0CF064
:100180000BC0F3FF0CC0F4FF020EE15C02E2E16A77
:10019000E552E16EE552E7CFD9FF1200D9CFE6FF75
:1001A000E1CFD9FF060EE126FB0EDBCFDEFFDBCF72
:1001B000DDFFFD0EDBCFE9FFFE0EDBCFEAFFEE50E9
:1001C000ED1026E1FD0EDBCFE9FFFE0EDBCFEAFFEF
:1001D000020EE926000EEA22EE50ED1019E1FD0EA6
:1001E000DBCFE9FFFE0EDBCFEAFFDECFEEFFDDCF98
:1001F000EDFFFD0EDBCFE9FFFE0EDBCFEAFF020EC7
:10020000E926000EEA22DECFEEFFDDCFEDFFAED015
:10021000FD0EDBCFE9FFFE0EDBCFEAFF020EEECFD5
:10022000DBFF030EEDCFDBFFF90EDBCF0DF0FA0E97
:10023000DBCF0EF0020EDBCFE6FF030EDBCFE6FFD7
:10024000DECFE6FFDDCFE6FF04D00EC0FAFF0D5093
:10025000F96EFBDFE552E552E552E552F3CF0BF0C4
:10026000F4CF0CF0010EF31801E10C5033E0020E54
:10027000DBCFE9FF030EDBCFEAFFEE50ED1019E113
:10028000020EDBCFE9FF030EDBCFEAFFDECFEEFF8E
:10029000DDCFEDFFFD0EDBCFE9FFFE0EDBCFEAFF8A
:1002A000020EE926000EEA22DECFEEFFDDCFEDFFE3
:1002B00011D0020EDBCF06F0030EDBCF07F0040EE9
:1002C00006C0DBFF050E07C0DBFF020EDBCFE9FF38
:1002D000030EA2D7F90EDBCF0DF0FA0EDBCF0EF036
:1002E000020EDBCFE6FF030EDBCFE6FFDECFE6FF3D
:1002F000DDCFE6FF04D00EC0FAFF0D50F96EFBDF34
:10030000E552E552E552E552F350F4102FE0020EAB
:10031000DBCF0BF0030EDBCF0CF0FD0EDBCFE9FFE4
:10032000FE0EDBCFEAFFEECF0DF0EFCF0EF00D505B
:100330000B1808E10E500C1805E1FD0EDBCFE9FFAC
:10034000FE0E04D0040EDBCFE9FF050EDBCFEAFF83
:10035000DECFEEFFDDCFEDFFDECFE9FFDDCFEAFF41
:10036000020EDBCFEEFF030EDBCFEDFF060EE15CEE
:1003700002E2E16AE552E16EE552E7CFD9FF1200F1
:10038000D9CFE6FFE1CFD9FFFD0EDBCFE9FFFE0EAF
:10039000DBCFEAFFEECF0BF0EFCF0CF0120E0B1815
:1003A00001E10C5027E00E0E0B1801E10C500CE09F
:1003B0000B5020E10C501EE1FD0EDBCFE9FFFE0EDD
:1003C000DBCFEAFF0E0E14D0FD0EDBCFE9FFFE0EF1
:1003D000DBCFEAFF020EE926000EEA22EF500A0800
:1003E00009E1FD0EDBCFE9FFFE0EDBCFEAFF120EC7
:1003F000EE6EED6AE552E7CFD9FF1200D9CFE6FFE6
:10040000E1CFD9FFFD0EDBCFE9FFFE0EDBCFEAFF28
:10041000EECF0BF0EFCF0CF02A0E0B1801E10C50D1
:1004200001E197D0230E0B1801E10C5021E0200EC2
:100430000B1801E10C501CE00B5001E0FED00C50F9
:1004400001E0FBD0FD0EDBCFE9FFFE0EDBCFEAFFC4
:10045000020EE926000EEA22010EEF6E6CEC07F0A8
:10046000FD0EDBCFE9FFFE0EDBCFEAFF200EB7D09B
:10047000FD0EDBCFE9FFFE0EDBCFEAFF030EE92620
:10048000000EEA22EECF0FF0EECF10F0EECF11F01B
:10049000EFCF12F00FC0E6FF10C0E6FF11C0E6FF7D
:1004A00012C0E6FF27EC04F0E552E7CF12F0E55268
:1004B000E7CF11F0E552E7CF10F0E552E7CF0FF0AC
:1004C00000010F50045C0B6E105005580C6E11505B
:1004D00006580D6E125007580E6ED880E80E0B5459
:1004E000010E0C54000E0D54000E0E5408E3FD0EC8
:1004F000DBCFE9FFFE0EDBCFEAFF230E70D06EEC00
:1005000007F027EC04F004C00BF005C00CF006C0A7
:100510000DF007C00EF0FD0EDBCFE9FFFE0EDBCFC6
:10052000EAFF030EE926000EEA2204C0EEFF0CC02B
:10053000EEFF0DC0EEFF0EC0EEFFFD0EDBCFE9FFBC
:10054000FE0EDBCFEAFF020EE926000EEA22020EC3
:10055000EF6EFD0EDBCFE9FFFE0EDBCFEAFF030EF1
:10056000E926000EEA22EECF0FF0EECF10F0EECF2C
:1005700011F0EFCF12F00FC0E6FF10C0E6FF11C080
:10058000E6FF12C0E6FF27EC04F0E552E7CF12F0D9
:10059000E552E7CF11F0E552E7CF10F0E552E7CF93
:1005A0000FF000010F50045C0B6E105005580C6EDC
:1005B000115006580D6E125007580E6ED880E80E76
:1005C0000B54010E0C54000E0D54000E0E540AE391
:1005D000FD0EDBCFE9FFFE0EDBCFEAFF2A0EEE6E4B
:1005E000ED6A2BD06CEC07F027EC04F004C00BF0A4
:1005F00005C00CF006C00DF007C00EF0FD0EDBCFFD
:10060000E9FFFE0EDBCFEAFF030EE926000EEA2229
:1006100004C0EEFF0CC0EEFF0DC0EEFF0EC0EEFFFB
:10062000FD0EDBCFE9FFFE0EDBCFEAFF020EE9266F
:10063000000EEA22010EEF6E1BD7E552E7CFD9FF7D
:020640001200A6
:0E064200D9CFE6FFE1CFD9FF9494FD0EDBCFB8
:10065000E9FFFE0EDBCFEAFFEF6AE552E7CFD9FFF5
:1006600012008284120082941200D9CFE6FFE1CFFB
:10067000D9FFFD0EDBCFE9FFFE0EDBCFEAFFEF5027
:10068000010A3EE0010A01E0D1D0FD0EDBCFE9FF17
:10069000FE0EDBCFEAFF010EEB6A020EEB6A27ECDF
:1006A00004F004C00BF005C00CF006C00DF007C04C
:1006B0000EF0FD0EDBCFE9FFFE0EDBCFEAFF030EEF
:1006C000E926000EEA2204C0EEFF0CC0EEFF0DC0CA
:1006D000EEFF0EC0EEFFFD0EDBCFE9FFFE0EDBCF1F
:1006E000EAFFEE52EE50EFCFEAFFE96EBC0EE926CC
:1006F000010EEA22EF50E66E8FEC07F0E5528ED045
:10070000FD0EDBCFE9FFFE0EDBCFEAFF030EE9268D
:10071000000EEA22EECF0FF0EECF10F0EECF11F088
:10072000EFCF12F00FC0E6FF10C0E6FF11C0E6FFEA
:1007300012C0E6FF27EC04F0E552E7CF12F0E552D5
:10074000E7CF11F0E552E7CF10F0E552E7CF0FF019
:1007500000010F50045C0B6E105005580C6E1150C8
:1007600006580D6E125007580E6EE80E0B5C010E07
:100770000C58000E0D58000E0E583AE327EC04F00A
:1007800004C00BF005C00CF006C00DF007C00EF061
:10079000FD0EDBCFE9FFFE0EDBCFEAFF030EE926FD
:1007A000000EEA2204C0EEFF0CC0EEFF0DC0EEFF0B
:1007B0000EC0EEFFFD0EDBCFE9FFFE0EDBCFEAFF42
:1007C000EE52EE50EFCFEAFFE96EBC0EE926010EC5
:1007D000EA22EF50E66E8FEC07F0E552FD0EDBCF1C
:1007E000E9FFFE0EDBCFEAFFEE52EE2A000EEF220B
:1007F000FD0EDBCFE9FFFE0EDBCFEAFFEE52100E5F
:10080000EE180CE1ED500AE1FD0EDBCFE9FFFE0E24
:10081000DBCFEAFF010EEB6A020EEB6AFD0EDBCFC7
:10082000E9FFFE0EDBCFEAFF010EEF6EE552E7CFE8
:04083000D9FF1200DA
:0C0834000101DC6BDD6BDE6BDF6BF28E14
:10084000D20EE66EADEC07F0E552F2941200DCC178
:1008500004F0DDC105F0DEC106F0DFC107F01200D3
:10086000D8CFE4FFE0CFE4FFE46EDACFE4FFE2CFDD
:10087000DAFFE9CFE4FFEACFE4FFF6CFE4FFF7CFFA
:10088000E4FFF5CFE4FFF3CFE4FFF4CFE4FFFACFCA
:10089000E4FF00EE00F00B0EE80403E3EECFE4FF0C
:1008A000FBD700EE0BF0080EE80403E3EECFE4FF05
:1008B000FBD7E652FECFD8F1FDCFD9F10101D851D7
:1008C000000EF3CF15F0166A15BE1668D9C117F0E1
:1008D000186A17BE186815501724136E1650182082
:1008E000146E00C1E9FF01C1EAFF060E13C0EBFF61
:1008F000070E14C0EBFF1AC1E6FF1BC1E6FF5AEC5E
:1009000000F0E552E552F3CFDAF1F4CFDBF12A0E35
:10091000E66E000EE66E00C1E6FF01C1E6FF1AC1F9
:10092000E6FF1BC1E6FFCEEC00F0136E060EE15EA3
:100930001350DAC100F1DBC101F100C1E9FF01C1CF
:10094000EAFF060EE926000EEA22EFCFD9F100C138
:10095000E9FF01C1EAFF060EE926000EEA22EECF0A
:1009600013F0EFCF14F014C013F0146A13C0D8F1D1
:10097000D950FD6ED850FE6E0101DC2B000EDD2338
:10098000DE23DF232ED8E55200EE12F0080EE80435
:1009900003E3E5CFEDFFFBD700EE0AF00B0EE80412
:1009A00003E3E5CFEDFFFBD7E5CFFAFFE5CFF4FF9B
:1009B000E5CFF3FFE5CFF5FFE5CFF7FFE5CFF6FF96
:1009C000E5CFEAFFE5CFE9FFE5CFDAFFE550E5CF78
:1009D000E0FFE5CFD8FF1000F250040B01E0010E5C
:0609E0001200F294120067
:0A09E600D9CFE6FFE1CFD9FF2A0EBA
:1009F000E66E000EE66EFB0EDBCF0DF0FC0EDBCFDD
:100A00000EF0030ED8900D360E36E806FBE1FD0E13
:100A1000DB500D240B6EFE0EDB500E200C6E0BC057
:100A2000E6FFE66E1AC1E6FF1BC1E6FFCEEC00F062
:100A30000F6E060EE15E0F50FB0EDBCF0BF0FC0ECF
:100A4000DBCF0CF0030ED8900B360C36E806FBE13A
:100A5000FD0EDB500B24E96EFE0EDB500C20EA6E1F
:100A6000040EE926000EEA22900EEE6E0B0EED6EDD
:100A7000FB0EDBCF0DF0FC0EDBCF0EF00D06000EF3
:100A80000E5A500E0E02F3CF0EF00D02F3CF0DF002
:100A9000F4500E261C0E0D26010E0E22FB0EDBCF8F
:100AA0000BF0FC0EDBCF0CF0030ED8900B360C369F
:100AB000E806FBE1FD0EDB500B24E96EFE0EDB5079
:100AC0000C20EA6E060EE926000EEA220DC0EEFFAB
:100AD0000EC0EDFFFB0EDBCF0BF0FC0EDBCF0CF0FE
:100AE000030ED8900B360C36E806FBE1FD0EDB500A
:100AF0000B24E96EFE0EDB500C20EA6E020EE92696
:100B0000000EEA22EF6AFB0EDBCF0BF0FC0EDBCF10
:100B10000CF0030ED8900B360C36E806FBE1FD0E08
:100B2000DB500B24E96EFE0EDB500C20EA6E030E48
:100B3000E926000EEA22FB0EDBCFEFFFE552E7CFFE
:100B4000D9FF12000101020E006F010E016F900E1D
:100B5000E66E0B0EE66E010EE66EE66A020EE66EBD
:100B6000010EE66E40DF0B6E060EE15E0B50920E3C
:100B7000E66E0B0EE66E020EE66EE66A020EE66E9C
:100B8000010EE66E30DF0B6E060EE15E0B501200BA
:040B9000120012003D
:0C0B9400D9CFE6FFE1CFD9FFFD0EDBCF8B
:100BA000E9FFFE0EDBCFEAFFEF6AFD0EDBCFE9FFC8
:100BB000FE0EDBCFEAFFEE52EF6AE552E7CFD9FF38
:100BC0001200D9CFE6FFE1CFD9FFFD0EDBCFE9FF61
:100BD000FE0EDBCFEAFFEF50010A1AE0010A32E114
:100BE0009EAA30D070EC07F0E66EFD0EDBCFE9FF79
:100BF000FE0EDBCFEAFFEE52E552E750EF6EFD0E40
:100C0000DBCFE9FFFE0EDBCFEAFF010EEF6E1AD05D
:100C1000AC50020B020A01E0010E010813E0FD0EC8
:100C2000DBCFE9FFFE0EDBCFEAFFEE52EF50E66EC0
:100C3000C9EC07F0E552FD0EDBCFE9FFFE0EDBCF7E
:0C0C4000EAFFEF6AE552E7CFD9FF12008F
:040C4C00D9CFE6FF17
:100C5000E1CFD9FF100EE1268F0ED3147009D36EA9
:100C6000330EE66EE66A3C0EE66ECCEC06F0E5521C
:100C7000E552E552800EE66E030EE66EE66A11EC72
:100C800007F0E552E552E5526AEC07F0A2EC05F0F8
:100C90001AEC04F0D950070FE66E000EDA20E66E6B
:100CA000CAEC05F0E552E552D950090FE66E000E88
:100CB000DA20E66E21EC03F0E552E55231EC03F068
:100CC000D9CFE6FFDACFE6FFFEEC01F0E552E552C0
:100CD000D950090FE66E000EDA20E66E35EC03F00F
:100CE000E552E552D950070FE66E000EDA20E66EA7
:0A0CF000E1EC05F0E552E552E3D710
:060CFA000E0EF66E000E66
:100D0000F76E000EF86E01010900F550D16F090071
:100D1000F550D26F03E1D16701D03DD00900F55005
:100D2000CC6F0900F550CD6F0900F550CE6F09006A
:100D30000900F550E96E0900F550EA6E0900090056
:100D40000900F550CF6F0900F550D06F0900090078
:100D5000F6CFD3F1F7CFD4F1F8CFD5F1CCC1F6FF70
:100D6000CDC1F7FFCEC1F8FF0101CF5302E1D0534F
:100D700007E00900F550EE6ECF07F8E2D007F9D78B
:100D8000D3C1F6FFD4C1F7FFD5C1F8FF0101D107E8
:080D9000000ED25BBFD7120078
:080D9800D9CFE6FFDACFE6FF38
:100DA000E1CFD9FFE2CFDAFFAC6AAB6AFD0EDBB070
:100DB000AC88DBA202D0AC8CAB8CDBB4AC8EDBA6F7
:100DC00002D0AB8801D0AB8ADBB8AC849E98DBBA8A
:100DD000AB86DBAC02D09D8A01D09D9A9E9ADBAE99
:100DE00002D09D8801D09D98FB0EDB50AF6EFB0EAC
:100DF000FC0EDBCF0CF00CC00BF00C6A0B50B06E8D
:100E0000AC8AAB8E949C948EAC50100B04E0AC502A
:100E1000800B01E1948CE552E5CFDAFFE7CFD9FFF3
:020E20001200BE
:0E0E2200D9CFE6FFDACFE6FFE1CFD9FFE2CF6E
:100E3000DAFF3F0EC716C66AFD0EDB50C612FB0E68
:100E4000DB50C712FC0EDB50030A09E0010A04E084
:100E5000020A06E1C78C04D0C78CC68801D0C688B8
:100E6000FD0EDB50050A05E0010A05E19486928A31
:100E700003D0948601D094969488949AC68AE552B9
:0A0E8000E5CFDAFFE7CFD9FF12003B
:060E8A00D9CFE6FFE1CF25
:100E9000D9FF020EE126DE6ADD6ADE6ADD6ADECF98
:100EA0000BF0DDCF0CF0D8900C5004E6880E0B5CF4
:100EB000130E0C5805E2DF2A010EF1E3DB2AEFD70F
:100EC000020EE15C02E2E16AE552E16EE552E7CF33
:100ED000D9FF1200939012008180120081901200BD
:100EE000D9CFE6FFDACFE6FFE1CFD9FFE2CFDAFFD5
:100EF000E652F20E0101E017ABAC03D0E091ABB0CB
:100F0000E081ABB4E085ABB2E087AE50DF6EDF507E
:0E0F1000E552E552E5CFDAFFE7CFD9FF120038
:020F1E00D9CF29
:100F2000E6FFDACFE6FFE1CFD9FFE2CFDAFFE65204
:100F3000C950DF6E9E96C69EFD0EDB50C96EC6AED2
:100F400002D0FF0E03D09EA6FED7000EE552E5525A
:0A0F5000E5CFDAFFE7CFD9FF12006A
:060F5A00D9CFE6FFDACF5B
:100F6000E6FFE1CFD9FFE2CFDAFFFD0EDB507F0BCA
:100F7000D56ED76AD66AF294FD0EDBAE02D0F28A45
:100F800001D0F29AD58EE552E5CFDAFFE7CFD9FF4F
:020F900012004D
:0E0F9200D9CFE6FFDACFE6FFE1CFD9FFE2CFFD
:100FA000DAFFACAC04D0AC900101E0B3AC80FD0E34
:100FB000DB50AD6EE552E5CFDAFFE7CFD9FF120087
:100FC000000EF36E00EE00F0060E01D81200EA608B
:100FD00002D0EE6AFCD7F350E9601200EE6AFCD74B
:100FE00015EE00F025EE00F0F86A0A9C7DEC06F0A4
:0C0FF00003EC00F026EC06F0FBD712002A
:040FFC007714B3B6FD
:0C100000D4E6E734F7F4F5C76397E3E1AA
:04100C0000000000E0
:020000040030CA
:0100010008F6
:010002001EDF
:010003001EDE
:0100060001F8
:00000001FF
