:020000040000FA
:0600000004EF05F0120000
:020006001200E6
:0600080084EF02F012007B
:02000E000200EE
:10001000340A0000A000000004000000240A0000D0
:08002000800000001000000048
:08002800D9CFE6FFE1CFD9FFBB
:10003000FD0EDBCFE9FFFE0EDBCFEAFFEECF0BF0CC
:10004000EFCF0CF0120E0B1801E10C5027E00E0E52
:100050000B1801E10C500CE00B5020E10C501EE19C
:10006000FD0EDBCFE9FFFE0EDBCFEAFF0E0E14D054
:10007000FD0EDBCFE9FFFE0EDBCFEAFF020EE92625
:10008000000EEA22EF500A0809E1FD0EDBCFE9FF7E
:10009000FE0EDBCFEAFF120EEE6EED6AE552E7CF01
:1000A000D9FF1200D9CFE6FFE1CFD9FFFD0EDBCF9C
:1000B000E9FFFE0EDBCFEAFFEECF0BF0EFCF0CF047
:1000C0002A0E0B1801E10C5001E197D0230E0B18FA
:1000D00001E10C5021E0200E0B1801E10C501CE056
:1000E0000B5001E0FED00C5001E0FBD0FD0EDBCF49
:1000F000E9FFFE0EDBCFEAFF020EE926000EEA2240
:10010000010EEF6E80EC04F0FD0EDBCFE9FFFE0E7A
:10011000DBCFEAFF200EB7D0FD0EDBCFE9FFFE0EEE
:10012000DBCFEAFF030EE926000EEA22EECF0FF046
:10013000EECF10F0EECF11F0EFCF12F00FC0E6FFD0
:1001400010C0E6FF11C0E6FF12C0E6FF7BEC02F034
:10015000E552E7CF12F0E552E7CF11F0E552E7CFD5
:1001600010F0E552E7CF0FF000010F50045C0B6E6A
:10017000105005580C6E115006580D6E125007584D
:100180000E6ED880E80E0B54010E0C54000E0D5468
:10019000000E0E5408E3FD0EDBCFE9FFFE0EDBCFB1
:1001A000EAFF230E70D082EC04F07BEC02F004C076
:1001B0000BF005C00CF006C00DF007C00EF0FD0EF0
:1001C000DBCFE9FFFE0EDBCFEAFF030EE926000ED0
:1001D000EA2204C0EEFF0CC0EEFF0DC0EEFF0EC021
:1001E000EEFFFD0EDBCFE9FFFE0EDBCFEAFF020ED6
:1001F000E926000EEA22020EEF6EFD0EDBCFE9FFCC
:10020000FE0EDBCFEAFF030EE926000EEA22EECF58
:100210000FF0EECF10F0EECF11F0EFCF12F00FC0D5
:10022000E6FF10C0E6FF11C0E6FF12C0E6FF7BEC60
:1002300002F0E552E7CF12F0E552E7CF11F0E552B8
:10024000E7CF10F0E552E7CF0FF000010F50045C4C
:100250000B6E105005580C6E115006580D6E125052
:1002600007580E6ED880E80E0B54010E0C54000E89
:100270000D54000E0E540AE3FD0EDBCFE9FFFE0E17
:10028000DBCFEAFF2A0EEE6EED6A2BD080EC04F095
:100290007BEC02F004C00BF005C00CF006C00DF0C2
:1002A00007C00EF0FD0EDBCFE9FFFE0EDBCFEAFF4D
:1002B000030EE926000EEA2204C0EEFF0CC0EEFF9A
:1002C0000DC0EEFF0EC0EEFFFD0EDBCFE9FFFE0E10
:1002D000DBCFEAFF020EE926000EEA22010EEF6EE6
:0A02E0001BD7E552E7CFD9FF12004B
:0602EA00D9CFE6FFE1CFD1
:1002F000D9FF9494FD0EDBCFE9FFFE0EDBCFEAFFC2
:10030000EF6AE552E7CFD9FF12008284120082948F
:100310001200D9CFE6FFE1CFD9FFFD0EDBCFE9FF19
:10032000FE0EDBCFEAFFEF50010A3EE0010A01E0DA
:10033000D1D0FD0EDBCFE9FFFE0EDBCFEAFF010ED1
:10034000EB6A020EEB6A7BEC02F004C00BF005C016
:100350000CF006C00DF007C00EF0FD0EDBCFE9FF7C
:10036000FE0EDBCFEAFF030EE926000EEA2204C0F0
:10037000EEFF0CC0EEFF0DC0EEFF0EC0EEFFFD0E57
:10038000DBCFE9FFFE0EDBCFEAFFEE52EE50EFCF00
:10039000EAFFE96E800EE926000EEA22EF50E66ED3
:1003A000A3EC04F0E5528ED0FD0EDBCFE9FFFE0E8C
:1003B000DBCFEAFF030EE926000EEA22EECF0FF0B4
:1003C000EECF10F0EECF11F0EFCF12F00FC0E6FF3E
:1003D00010C0E6FF11C0E6FF12C0E6FF7BEC02F0A2
:1003E000E552E7CF12F0E552E7CF11F0E552E7CF43
:1003F00010F0E552E7CF0FF000010F50045C0B6ED8
:10040000105005580C6E115006580D6E12500758BA
:100410000E6EE80E0B5C010E0C58000E0D58000E0F
:100420000E583AE37BEC02F004C00BF005C00CF070
:1004300006C00DF007C00EF0FD0EDBCFE9FFFE0E8B
:10044000DBCFEAFF030EE926000EEA2204C0EEFF2E
:100450000CC0EEFF0DC0EEFF0EC0EEFFFD0EDBCFB9
:10046000E9FFFE0EDBCFEAFFEE52EE50EFCFEAFFE0
:10047000E96E800EE926000EEA22EF50E66EA3EC4C
:1004800004F0E552FD0EDBCFE9FFFE0EDBCFEAFF05
:10049000EE52EE2A000EEF22FD0EDBCFE9FFFE0E3C
:1004A000DBCFEAFFEE52100EEE180CE1ED500AE140
:1004B000FD0EDBCFE9FFFE0EDBCFEAFF010EEB6A9C
:1004C000020EEB6AFD0EDBCFE9FFFE0EDBCFEAFF8B
:0C04D000010EEF6EE552E7CFD9FF1200DD
:0404DC000001A06B10
:1004E000A16BA26BA36BF28ED20EE66EC1EC04F090
:1004F000E552F2941200A0C004F0A1C005F0A2C021
:1005000006F0A3C007F01200DACFE4FFE2CFDAFF73
:10051000E9CFE4FFEACFE4FFF6CFE4FFF7CFE4FF53
:10052000F5CFE4FFF3CFE4FFF4CFE4FFFACFE4FF2D
:1005300000EE00F00B0EE80403E3EECFE4FFFBD780
:1005400000EE0BF0080EE80403E3EECFE4FFFBD768
:10055000E6529A6ED8CF9CF0E0CF9BF00001A02B22
:10056000000EA123A223A32329D8E55200EE12F006
:10057000080EE80403E3E5CFEDFFFBD700EE0AF039
:100580000B0EE80403E3E5CFEDFFFBD7E5CFFAFF61
:10059000E5CFF4FFE5CFF3FFE5CFF5FFE5CFF7FFBC
:1005A000E5CFF6FFE5CFEAFFE5CFE9FFE5CFDAFFDC
:1005B0001100F250040B01E0010E1200F29412003F
:1005C000D9CFE6FFE1CFD9FFFD0EDBCFE9FFFE0E6D
:1005D000DBCFEAFFEF6AFD0EDBCFE9FFFE0EDBCFDC
:1005E000EAFFEE52EF6AE552E7CFD9FF1200D9CF0A
:1005F000E6FFE1CFD9FFFD0EDBCFE9FFFE0EDBCF3B
:10060000EAFFEF50010A1AE0010A32E19EAA30D057
:1006100084EC04F0E66EFD0EDBCFE9FFFE0EDBCFCF
:10062000EAFFEE52E552E750EF6EFD0EDBCFE9FF39
:10063000FE0EDBCFEAFF010EEF6E1AD0AC50020BBC
:10064000020A01E0010E010813E0FD0EDBCFE9FF15
:10065000FE0EDBCFEAFFEE52EF50E66EDDEC04F06B
:10066000E552FD0EDBCFE9FFFE0EDBCFEAFFEF6ABE
:08067000E552E7CFD9FF1200AB
:08067800D9CFE6FFE1CFD9FF65
:10068000100EE1268F0ED3147009D36E330EE66E72
:10069000E66A3C0EE66EE0EC03F0E552E552E55208
:1006A000800EE66E030EE66EE66A25EC04F0E55277
:1006B000E552E5527EEC04F06EEC02F0D950070FE3
:1006C000E66E000EDA20E66EE0EC02F0E552E5524E
:1006D000D950090FE66E000EDA20E66E75EC01F0D7
:1006E000E552E55285EC01F0D9CFE6FFDACFE6FF1F
:1006F00052EC00F0E552E552D950090FE66E000EBB
:10070000DA20E66E89EC01F0E552E552D950070F88
:10071000E66E000EDA20E66EF7EC02F0E552E552E6
:02072000E3D71D
:0E0722000E0EF66E000EF76E000EF86E000161
:100730000900F550956F0900F550966F03E1956734
:1007400001D03DD00900F550906F0900F550916F30
:100750000900F550926F09000900F550E96E090093
:10076000F550EA6E090009000900F550936F090081
:10077000F550946F09000900F6CF97F0F7CF98F085
:10078000F8CF99F090C0F6FF91C0F7FF92C0F8FF44
:100790000001935302E1945307E00900F550EE6E17
:1007A0009307F8E29407F9D797C0F6FF98C0F7FFD0
:1007B00099C0F8FF00019507000E965BBFD71200A5
:1007C000D9CFE6FFDACFE6FFE1CFD9FFE2CFDAFFFC
:1007D000AC6AAB6AFD0EDBB0AC88DBA202D0AC8C9D
:1007E000AB8CDBB4AC8EDBA602D0AB8801D0AB8A7D
:1007F000DBB8AC849E98DBBAAB86DBAC02D09D8ABA
:1008000001D09D9A9E9ADBAE02D09D8801D09D9822
:10081000FB0EDB50AF6EFB0EFC0EDBCF0CF00CC002
:100820000BF00C6A0B50B06EAC8AAB8E949C948E1D
:10083000AC50100B04E0AC50800B01E1948CE552FD
:0A084000E5CFDAFFE7CFD9FF120081
:06084A00D9CFE6FFDACF72
:10085000E6FFE1CFD9FFE2CFDAFF3F0EC716C66A47
:10086000FD0EDB50C612FB0EDB50C712FC0EDB5038
:10087000030A09E0010A04E0020A06E1C78C04D079
:10088000C78CC68801D0C688FD0EDB50050A05E07E
:10089000010A05E19486928A03D0948601D0949649
:1008A0009488949AC68AE552E5CFDAFFE7CFD9FF5C
:0208B000120034
:0E08B200D9CFE6FFE1CFD9FF020EE126DE6AC4
:1008C000DD6ADE6ADD6ADECF0BF0DDCF0CF0D8909A
:1008D0000C5004E6880E0B5C130E0C5805E2DF2A60
:1008E000010EF1E3DB2AEFD7020EE15C02E2E16ADE
:1008F000E552E16EE552E7CFD9FF12009390120066
:080900008180120081901200B9
:08090800D9CFE6FFDACFE6FFCC
:10091000E1CFD9FFE2CFDAFFE652F20E0001A417D1
:10092000ABAC03D0A491ABB0A481ABB4A485ABB203
:10093000A487AE50DF6EDF50E552E552E5CFDAFF17
:06094000E7CFD9FF120011
:0A094600D9CFE6FFDACFE6FFE1CFDC
:10095000D9FFE2CFDAFFE652C950DF6E9E96C69EFF
:10096000FD0EDB50C96EC6AE02D0FF0E03D09EA6B0
:10097000FED7000EE552E552E5CFDAFFE7CFD9FF0B
:02098000120063
:0E098200D9CFE6FFDACFE6FFE1CFD9FFE2CF13
:10099000DAFFFD0EDB507F0BD56ED76AD66AF29474
:1009A000FD0EDBAE02D0F28A01D0F29AD58EE5526E
:0A09B000E5CFDAFFE7CFD9FF120010
:0609BA00D9CFE6FFDACF01
:1009C000E6FFE1CFD9FFE2CFDAFFACAC04D0AC90C8
:1009D0000001A4B3AC80FD0EDB50AD6EE552E5CF57
:0809E000DAFFE7CFD9FF120096
:0809E800000EF36E00EE00F0BA
:1009F000060E01D81200EA6002D0EE6AFCD7F3506E
:080A0000E9601200EE6AFCD768
:080A080015EE00F025EE00F0F0
:100A1000F86A0A9C91EC03F003EC00F03CEC03F064
:040A2000FBD71200EE
:0C0A24007714B3B6D4E6E734F7F4F5C756
:040A30006397E3E104
:040A340000000000BE
:020000040030CA
:0100010008F6
:010002001EDF
:010003001EDE
:0100060001F8
:00000001FF
