:040000000CEF00F011
:10000800FACF01F0FBCF02F0E9CF03F023ED05F0C2
:04001800EAEF05F016
:100600000074616B206A616469207969656C643289
:100610000A006265666F7265207969656C64310AEB
:10062000006166746572207969656C6420320A0025
:100630006265666F7265207969656C64320A006173
:1006400066746572207969656C64310A004C4544B2
:10065000325F494E49540A000000D7D020EE02F024
:100660001350D9261450DA22010EDF6E79EC06F011
:1006700013C0D9FF14C0DAFF1F0E67D013C0D9FF13
:1006800014C0DAFF220E61D020EE03F01350D926F9
:100690001450DA22DECF15F0DECF16F0DECF17F0E1
:1006A000DECF18F0151E161E171E181E152A000E76
:1006B00016221722182255EC06F00FC019F010C0B0
:1006C0001AF011C01BF012C01CF0155019241D6E39
:1006D00016501A201E6E17501B201F6E18501C201B
:1006E000206EE90E1D5C010E1E58000E1F58000EF4
:1006F0002058D8A0C3D77BEC06F055EC06F00FC00D
:1007000015F010C016F011C017F012C018F020EE4E
:1007100003F01350D9261450DA2215C0DEFF16C09C
:10072000DEFF17C0DEFF18C0DDFFD906D90620EEB8
:1007300002F01350D9261450DA22020EDF6E09D0CF
:1007400013C0D9FF14C0DAFF290EDE6E000EDD6E75
:1007500075D020EE03F01350D9261450DA22DECFE4
:1007600015F0DECF16F0DECF17F0DECF18F0151E35
:10077000161E171E181E152A000E162217221822E2
:1007800055EC06F00FC019F010C01AF011C01BF0A4
:1007900012C01CF0155019241D6E16501A201E6E22
:1007A00017501B201F6E18501C20206EE90E1D5C78
:1007B000010E1E58000E1F58000E2058D8A0C0D79A
:1007C00079EC06F055EC06F00FC015F010C016F0ED
:1007D00011C017F012C018F020EE03F01350D92604
:1007E0001450DA2215C0DEFF16C0DEFF17C0DEFF90
:1007F00018C0DDFFD906D90620EE02F01350D92625
:100800001450DA22010EDF6E3FD713C0D9FF14C097
:10081000DAFFDECF15F0DDCF16F01650000AD8A4AF
:100820000DD01550000AD8B419D71F0AD8B42CD748
:100830003D0AD8B429D70B0AD8B48BD71200C1D03F
:1008400020EE01F01350D9261450DA22000EDE6E8D
:10085000000EDD6E55EC06F00FC015F010C016F05E
:1008600011C017F012C018F020EE03F01350D92673
:100870001450DA2215C0DEFF16C0DEFF17C0DEFFFF
:1008800018C0DDFFD906D90620EE01F01350D92695
:100890001450DA22DECF15F0DDCF16F0310E15241C
:1008A000D96E000E1620DA6EDF5040EC06F082D0D2
:1008B00020EE03F01350D9261450DA22DECF15F0C3
:1008C000DECF16F0DECF17F0DECF18F0151E161EA5
:1008D000171E181E152A000E16221722182255EC74
:1008E00006F00FC019F010C01AF011C01BF012C0B2
:1008F0001CF0155019241D6E16501A201E6E17502C
:100900001B201F6E18501C20206EE80E1D5C010E6F
:100910001E58000E1F58000E2058D8A036D055EC97
:1009200006F00FC015F010C016F011C017F012C07D
:1009300018F020EE03F01350D9261450DA2215C017
:10094000DEFF16C0DEFF17C0DEFF18C0DDFFD906D0
:10095000D90620EE01F01350D9261450DA22DECF4A
:1009600015F0DDCF16F0310E1524D96E000E1620CD
:10097000DA6EDF5040EC06F020EE01F01350D9267D
:100980001450DA22DE2A000EDD2220EE01F0135090
:10099000D9261450DA22DE50100ADD10D8A40AD06D
:1009A00020EE01F01350D9261450DA22000EDE6E2C
:1009B000000EDD6E13C0D9FF14C0DAFF010EDF6E2A
:1009C0000BD013C0D9FF14C0DAFFDF50000AD8B42F
:1009D00037D7010AD8B46CD71200D388D38AD38C06
:1009E000000E106E330E0F6E3C0E59EC05F0030E28
:1009F0000F6E800E106E000EBDEC05F07DEC06F063
:100A000032EC06F0000E106E280E0F6E23EC06F08E
:100A1000000E106E2A0E0F6E6FEC06F077EC06F0EB
:100A2000000E116E280E106E8DEC05F0000E146E87
:100A3000210E136E2DEC03F0000E146E2A0E136EB1
:100A40001FEC04F0EDD70600EACF04F0E1CF05F08B
:100A5000E2CF06F0D9CF07F0DACF08F0F3CF09F0F4
:100A6000F4CF0AF0F6CF0BF0F7CF0CF0F8CF0DF083
:100A7000F5CF0EF05EEC06F00EC0F5FF0DC0F8FFEE
:100A80000CC0F7FF0BC0F6FF0AC0F4FF09C0F3FF6C
:100A900008C0DAFF07C0D9FF06C0E2FF05C0E1FFCA
:100AA00004C0EAFF03C0E9FF02C0FBFF01C0FAFF78
:100AB0001100146E000EAC6E000EAB6E14B0AC885C
:100AC00014A202D0AC8CAB8C14B4AC8E14A602D0A1
:100AD000AB8801D0AB8A14B8AC849E9814BAAB86AC
:100AE00014AC02D09D8A01D09D9A9E9A14AE02D079
:100AF0009D8801D09D980FC0AFFF10C011F011C0AC
:100B000012F0136A1250B06EAC8AAB8E949C948E25
:100B1000ACB8ACBE01D0948C120023D09EAA2CD0CD
:100B200020EE01F01050D9261150DA2214EC06F014
:100B3000DF6E10C0D9FF11C0DAFF010E10D0ACA2D9
:100B40001BD020EE01F01050D9261150DA22DF50D0
:100B50004CEC06F010C0D9FF11C0DAFF000EDF6EBA
:100B60000BD010C0D9FF11C0DAFFDF50000AD8B493
:100B7000D5D7010AD8B4E3D71200116E3F0EC716BD
:100B8000000EC66E1150C6121050C71205D0C78C89
:100B900015D0C78CC68812D00F50000AD8B4F7D72A
:100BA000020AD8B4F6D7010AD8B4F4D707D094868D
:100BB000928A0CD094860AD0949608D01150040AD8
:100BC000D8B4F5D7010AD8B4F5D7F6D79488949A53
:100BD000C68A1200456A446A436A426A416ACE0E76
:100BE000F66E0C0EF76E000EF86E00EE31F010EEA1
:100BF00010F00900F5CFEEFFE550E150FAE1000EEC
:100C0000F86E0001EDEF04F00F6E0F507F0BD56E04
:100C1000000ED76E000ED66EF2940FAE02D0F28A9E
:100C200001D0F29AD58E1200F20E4516ABAC03D06D
:100C30004590ABB04580ABB44584ABB24586AECFF2
:100C40000FF00F5012000FC0D9FF10C0DAFF000ED6
:100C5000DF6E20EE01F00F50D9261050DA22000E80
:100C6000DF6E1200000E416E000E426E000E436EEB
:100C7000000E446EF28ED20E04EC06F0F2941200D6
:100C8000106EC9CF0FF09E96C69E10C0C9FFC6BE9B
:100C900002D09EA6FED712000F6EACAC03D0AC9073
:100CA00045B2AC800FC0ADFF120041C00FF042C092
:100CB00010F043C011F044C012F01200010E4126A2
:100CC000000E4222432244227FEC06F012007714E9
:100CD000B3B6D4E6E734F7F4F5C76397E3E1949449
:100CE0000FC0D9FF10C0DAFF000EDF6E1200828441
:100CF0001200818012008190120093901200F294F1
:020D00001200DF
:020000040020DA
:08000000FFFFFFFFFFFFFFFF00
:020000040030CA
:0E000000FF081E1EFF8301FF0FC00FE00F4020
:00000001FF
