:0400000078EF3DF068
:1079BE00F2941200819012008180120093901200B6
:1079CE0082841200F2A402D0010E01D0000E120029
:1079DE00949401C0D9FF02C0DAFF000EDF6E1200D0
:1079EE007714B3B6D4E6E734F7F6F5C78397E3E139
:1079FE00016EACAC03D0AC9039B2AC8001C0ADFF1F
:107A0E001200026EC9CF01F09E96C69E02C0C9FF3B
:107A1E00C6BE02D09EA6FED71200000E316E000E1C
:107A2E00326E000E336E000E346E520E3FEC3DF091
:107A3E00F294120001C0D9FF02C0DAFF000EDF6E11
:107A4E0020EE01F00150D9260250DA22000EDF6E30
:107A5E001200F20E3916ABAC03D03990ABB03980B0
:107A6E00ABB43984ABB23986AECF01F001501200FF
:107A7E00016E01507F0BD56E000ED76E000ED66EC6
:107A8E00F29401AE02D0F28A01D0F29AD58E120093
:107A9E0001C0D9FF02C0DAFF000EDF6E20EE01F04A
:107AAE000150D9260250DA22DE6ADE6ADE6ADD6A0B
:107ABE00E5EC3CF01200E9EC3CF00009D8B408D03B
:107ACE00010E3126000E322233223422DFEC3CF03E
:107ADE0031C001F032C002F033C003F034C004F004
:107AEE00120000EE31F0090EEE6AE806FDE1EE0E30
:107AFE00F66E790EF76E000EF86E00EE21F010EEB7
:107B0E0010F00900F5CFEEFFE550E150FAE1000E5E
:107B1E00F86E000124EF3EF0036E3F0EC716000E06
:107B2E00C66E0350C6120250C71205D0C78C15D0B0
:107B3E00C78CC68812D00150000AD8B4F7D7020AF3
:107B4E00D8B4F6D7010AD8B4F4D707D09486928A5F
:107B5E000CD094860AD0949608D00350040AD8B458
:107B6E00F5D7010AD8B4F5D7F6D79488949AC68A71
:107B7E00120023D09EAA2CD020EE01F00250D9265E
:107B8E000350DA2230EC3DF0DF6E02C0D9FF03C0A5
:107B9E00DAFF010E10D0ACA21BD020EE01F0025085
:107BAE00D9260350DA22DF50FFEC3CF002C0D9FF99
:107BBE0003C0DAFF000EDF6E0BD002C0D9FF03C088
:107BCE00DAFFDF50000AD8B4D5D7010AD8B4E3D70C
:107BDE001200066E000EAC6E000EAB6E06B0AC88D8
:107BEE0006A202D0AC8CAB8C06B4AC8E06A602D02C
:107BFE00AB8801D0AB8A06B8AC849E9806BAAB8629
:107C0E0006AC02D09D8A01D09D9A9E9A06AE02D0F5
:107C1E009D8801D09D9801C0AFFF02C003F003C044
:107C2E0004F0056A0450B06EAC8AAB8E949C948EB0
:107C3E00ACB8ACBE01D0948C1200D388D38AD38C4E
:107C4E00000E026E330E016E3C0EF0EC3DF0030E94
:107C5E00016E800E026E000E93EC3DF0000E026E71
:107C6E00150E016E4FEC3DF014EC3DF0000E026E61
:107C7E00130E016E21EC3DF0000E026E1A0E016E17
:107C8E00EFEC3CF0E7EC3CF0000E036E130E026ED0
:107C9E00C0EC3DF0000E066E150E056E2CEC3FF09E
:107CAE00000E066E1A0E056E5EEC3EF0EDD7C1D0DC
:107CBE0020EE01F00550D9260650DA22000EDE6EB7
:107CCE00000EDD6E62EC3DF001C007F002C008F060
:107CDE0003C009F004C00AF020EE03F00550D926C7
:107CEE000650DA2207C0DEFF08C0DEFF09C0DEFF45
:107CFE000AC0DDFFD906D90620EE01F00550D926BF
:107D0E000650DA22DECF07F0DDCF08F0210E072471
:107D1E00D96E000E0820DA6EDF5008EC3DF082D0EE
:107D2E0020EE03F00550D9260650DA22DECF07F0FA
:107D3E00DECF08F0DECF09F0DECF0AF0071E081EF8
:107D4E00091E0A1E072A000E082209220A2262ECC8
:107D5E003DF001C00BF002C00CF003C00DF004C0EA
:107D6E000EF007500B240F6E08500C20106E0950A9
:107D7E000D20116E0A500E20126EE80E0F5C010ED1
:107D8E001058000E1158000E1258D8A036D062ECC2
:107D9E003DF001C007F002C008F003C009F004C0B6
:107DAE000AF020EE03F00550D9260650DA2207C05D
:107DBE00DEFF08C0DEFF09C0DEFF0AC0DDFFD90608
:107DCE00D90620EE01F00550D9260650DA22DECF74
:107DDE0007F0DDCF08F0210E0724D96E000E082023
:107DEE00DA6EDF5008EC3DF020EE01F00550D9269A
:107DFE000650DA22DE2A000EDD2220EE01F00550BA
:107E0E00D9260650DA22DE50100ADD10D8A40AD088
:107E1E0020EE01F00550D9260650DA22000EDE6E55
:107E2E00000EDD6E05C0D9FF06C0DAFF010EDF6E53
:107E3E000BD005C0D9FF06C0DAFFDF50000AD8B458
:107E4E0037D7010AD8B46CD71200C4D005C0D9FFF9
:107E5E0006C0DAFF020EDF6E20EE01F00550D926C5
:107E6E000650DA22DE6ADE6ADE6ADD6AC1D020EEF4
:107E7E0001F00550D9260650DA22DECF07F0DECF0C
:107E8E0008F0DECF09F0DECF0AF0071E081E091E2D
:107E9E000A1E072A000E082209220A2262EC3DF071
:107EAE0001C00BF002C00CF003C00DF004C00EF0C8
:107EBE0007500B240F6E08500C20106E09500D2029
:107ECE00116E0A500E20126EE80E0F5C010E105845
:107EDE00000E1158000E1258D8A08AD062EC3DF058
:107EEE0001C007F002C008F003C009F004C00AF098
:107EFE0020EE01F00550D9260650DA2207C0DEFF2B
:107F0E0008C0DEFF09C0DEFF0AC0DDFFD906D906B4
:107F1E00E1EC3CF005C0D9FF06C0DAFF010E58D0E7
:107F2E0020EE01F00550D9260650DA22DECF07F0FA
:107F3E00DECF08F0DECF09F0DECF0AF0071E081EF6
:107F4E00091E0A1E072A000E082209220A2262ECC6
:107F5E003DF001C00BF002C00CF003C00DF004C0E8
:107F6E000EF007500B240F6E08500C20106E0950A7
:107F7E000D20116E0A500E20126EE80E0F5C010ECF
:107F8E001058000E1158000E1258D8A031D062ECC5
:107F9E003DF001C007F002C008F003C009F004C0B4
:107FAE000AF020EE01F00550D9260650DA2207C05D
:107FBE00DEFF08C0DEFF09C0DEFF0AC0DDFFD90606
:107FCE00D906E3EC3CF005C0D9FF06C0DAFF020E7D
:107FDE00DF6E0ED005C0D9FF06C0DAFFDF50000AF3
:107FEE00D8B434D7010AD8B49BD7030AD8B43FD734
:027FFE0012006F
:020000040020DA
:08000000FFFFFFFFFFFFFFFF00
:020000040030CA
:0E000000FF081E1EFF8301FF0FC00FE00F4020
:00000001FF
