:040000000CEF00F011
:10000800FACF01F0FBCF02F0E9CF03F02DED03F0BA
:0400180097EF03F06B
:100600000074616B206A616469207969656C643289
:100610000A006265666F7265207969656C64310AEB
:10062000006166746572207969656C6420320A0025
:100630006265666F7265207969656C64320A006173
:1006400066746572207969656C64310A004C4544B2
:10065000325F494E49540A0000000600EACF04F018
:10066000E1CF05F0E2CF06F0D9CF07F0DACF08F0FE
:10067000F3CF09F0F4CF0AF0F6CF0BF0F7CF0CF080
:10068000F8CF0DF0F5CF0EF0B2EC03F00EC0F5FF91
:100690000DC0F8FF0CC0F7FF0BC0F6FF0AC0F4FF57
:1006A00009C0F3FF08C0DAFF07C0D9FF06C0E2FFA8
:1006B00005C0E1FF04C0EAFF03C0E9FF02C0FBFF81
:1006C00001C0FAFF1100146E000EAC6E000EAB6E8E
:1006D00014B0AC8814A202D0AC8CAB8C14B4AC8E29
:1006E00014A602D0AB8801D0AB8A14B8AC849E9813
:1006F00014BAAB8614AC02D09D8A01D09D9A9E9A02
:1007000014AE02D09D8801D09D980FC0AFFF10C0DD
:1007100011F011C012F0136A1250B06EAC8AAB8E99
:10072000949C948EACB8ACBE01D0948C120000EEB8
:1007300025F0080EEE6AE806FDE1DC0EF66E070E07
:10074000F76E000EF86E00EE15F010EE10F00900D6
:10075000F5CFEEFFE550E150FAE1000EF86E000132
:10076000E1EF03F02C6FD8502B6FE0502A6FFF5051
:10077000FE50FD50010E2526000E2622272228229B
:10078000F6EC03F012000F6E0F507F0BD56E000ECB
:10079000D76E000ED66EF2940FAE02D0F28A01D060
:1007A000F29AD58E1200000E256E000E266E000EF7
:1007B000276E000E286EF28ED20EC3EC03F0F29478
:1007C0001200D388D38AD38C000E106E330E0F6EB6
:1007D0003C0E63EC03F0D3EC03F0FFD77714B3B611
:1007E000D4E6E734F7F4F5C76397E3E1F294120037
:020000040020DA
:08000000FFFFFFFFFFFFFFFF00
:020000040030CA
:0E000000FF081E1EFF8301FF0FC00FE00F4020
:00000001FF
