:0400000096EF3FF048
:107F280082801200076A0001BDEF3FF0016EACAC21
:107F380003D0AC9007B2AC8001C0ADFF12009EAA7E
:107F4800FED7AEEC3FF0026EACA2FED702509AEC20
:107F58003FF01200F20E0716ABAC03D00790ABB09F
:107F68000780ABB40784ABB20786AECF01F00150EF
:107F78001200D388D38AD38C000E026E330E016EA2
:107F88003C0ECCEC3FF0A3EC3FF094EC3FF0FBD779
:107F9800066E000EAC6E000EAB6E06B0AC8806A284
:107FA80002D0AC8CAB8C06B4AC8E06A602D0AB88E3
:107FB80001D0AB8A06B8AC849E9806BAAB8606ACEC
:107FC80002D09D8A01D09D9A9E9A06AE02D09D88C5
:107FD80001D09D9801C0AFFF02C003F003C004F0B8
:107FE800056A0450B06EAC8AAB8E949C948EACB883
:087FF800ACBE01D0948C120014
:020000040020DA
:08000000FFFFFFFFFFFFFFFF00
:020000040030CA
:0E000000FF081E1EFF8301FF0FC00FE00F4020
:00000001FF
