:040000009BEF3FF043
:107F360000EE01F0090EEE6AE806FDE1000EF86EAD
:107F46000001B2EF3FF00B6EC9CF0AF09E96C69EB7
:107F56000BC0C9FFC6BE02D09EA6FED71200030EF6
:107F66000A6E800E0B6E000ED3EC3FF0200EA6ECD0
:107F76003FF0BFEC3FF0FAD7000E0B6E000E0A6E14
:107F8600000E0B6E000E0A6E0B50800A1F0FA80E15
:107F9600D8B40A5CD8B003D00A4A0B2AF5D7120027
:107FA6000C6E3F0EC716000EC66E0C50C6120B5056
:107FB600C71205D0C78C15D0C78CC68812D00A50F8
:107FC600000AD8B4F7D7020AD8B4F6D7010AD8B44B
:107FD600F4D707D09486928A0CD094860AD09496C9
:107FE60008D00C50040AD8B4F5D7010AD8B4F5D78E
:0A7FF600F6D79488949AC68A120008
:020000040020DA
:08000000FFFFFFFFFFFFFFFF00
:020000040030CA
:0E000000FF081E1EFF8301FF0FC00FE00F4020
:00000001FF
