:020000040000FA
:060000003EEF09F01200C2
:020006001200E6
:0800080007EF00F01200D8CF51
:10001000E4FFE0CFE4FFE46EDACFE4FFE2CFDAFF03
:10002000D9CFE4FFE9CFE4FFEACFE4FFF6CFE4FF66
:10003000F7CFE4FFF5CFE4FFF3CFE4FFF4CFE4FF25
:10004000FACFE4FF00EE00F00B0EE80403E3EECF7E
:10005000E4FFFBD700EE0BF0080EE80403E3EECF5D
:10006000E4FFFBD7E652FECFD2F3FDCFD3F3E2CFCE
:10007000D0F3E1CFD1F390C3E9FF91C3EAFF020EC1
:10008000E926000EEA22EF6A90C3E9FF91C3EAFF76
:10009000EE6AED6AD2C315F015C016F0156A0301B9
:1000A000D35100011510136E16C014F090C3E9FF70
:1000B00091C3EAFF040E13C0EBFF050E14C0EBFF63
:1000C000D0C315F015C016F0156A0301D151000117
:1000D0001510136E16C014F090C3E9FF91C3EAFF28
:1000E000060E13C0EBFF070E14C0EBFFAA0EE66E60
:1000F000030EE66E6FEC01F0E552E552F3CFD4F358
:10010000F4CFD5F3540EE66E020EE66E90C3E6FF12
:1001100091C3E6FFAA0EE66E030EE66EEFEC01F069
:10012000136E060EE15E1350D4C390F3D5C391F362
:1001300090C3E9FF91C3EAFF040EE926000EEA220C
:10014000EECF13F0EFCF14F013500301D36F90C331
:10015000E9FF91C3EAFF040EE926000EEA22EECF82
:1001600013F0EFCF14F014C013F0146A13C0D2F3DD
:1001700090C3E9FF91C3EAFF060EE926000EEA22CA
:10018000EECF13F0EFCF14F013500301D16F90C3F3
:10019000E9FF91C3EAFF060EE926000EEA22EECF40
:1001A00013F0EFCF14F014C013F0146A13C0D0F39F
:1001B000D2C3E8FFFE6ED3C3E8FFFD6ED0C3E8FFF5
:1001C000E26ED1C3E8FFE16E0301C82B000EC92324
:1001D000CA23CB2330D8E55200EE12F0080EE80413
:1001E00003E3E5CFEDFFFBD700EE0AF00B0EE804CA
:1001F00003E3E5CFEDFFFBD7E5CFFAFFE5CFF4FF53
:10020000E5CFF3FFE5CFF5FFE5CFF7FFE5CFF6FF4D
:10021000E5CFEAFFE5CFE9FFE5CFD9FFE5CFDAFF8C
:10022000E550E5CFE0FFE5CFD8FF1000F250040B1A
:0A02300001E0010E1200F29412002A
:06023A000200A812000002
:10024000C80300000800000098120000AE03000080
:04025000100000009A
:0C025400D9CFE6FFE1CFD9FF040EE12670
:10026000FD0EDBCFDEFFDBCFDDFFFB0EDBCF06F0CD
:10027000FC0EDBCF07F0020E06C0DBFF030E07C04B
:10028000DBFFDECFE9FFDDCFEAFF020EE926000E3D
:10029000EA22EFCF0BF0020EDBCFE9FF030EDBCF3C
:1002A000EAFF020EE926000EEA22EF50E76E0B1875
:1002B000E8AE02D00B3403D0E750D8800B5403E2F1
:1002C000010EF36E01D0F36AF46A040EE15C02E2FF
:1002D000E16AE552E16EE552E7CFD9FF1200D9CFCE
:1002E000E6FFE1CFD9FF020EE126FD0EDBCFE9FFED
:1002F000FE0EDBCFEAFFEECFDEFFEDCFDDFFFD0E22
:10030000DBCFE9FFFE0EDBCFEAFFEE50ED1003E19D
:10031000F36AF46A5AD0FD0EDBCFE9FFFE0EDBCFA5
:10032000EAFFEE50EFCFEAFFE96EEE50ED1025E167
:10033000FD0EDBCFE9FFFE0EDBCFEAFFEE50EFCF85
:10034000EAFFE96EEECF0BF0EFCF0CF0FD0EDBCF46
:10035000E9FFFE0EDBCFEAFF0BC0EEFF0CC0EDFFA6
:10036000FD0EDBCFE9FFFE0EDBCFEAFF020EE92632
:10037000000EEA22EE6AED6A18D0FD0EDBCFE9FF2F
:10038000FE0EDBCFEAFFEE50EFCFEAFFE96EEECFD5
:100390000BF0EFCF0CF0FD0EDBCFE9FFFE0EDBCF55
:1003A000EAFF0BC0EEFF0CC0EDFFDECFE9FFDDCFB3
:1003B000EAFF000EEF6A010EEB6ADECF0BF0DDCF35
:1003C0000CF00BC0F3FF0CC0F4FF020EE15C02E284
:1003D000E16AE552E16EE552E7CFD9FF1200D9CFCD
:1003E000E6FFE1CFD9FF060EE126FB0EDBCFDEFFF5
:1003F000DBCFDDFFFD0EDBCFE9FFFE0EDBCFEAFF3B
:10040000EE50ED1012E1FD0EDBCFE9FFFE0EDBCF6B
:10041000EAFF020EE926000EEA22EE50ED1005E199
:10042000FD0EDBCFE9FFFE0E3CD0FD0EDBCFE9FF7A
:10043000FE0EDBCFEAFF020EEECFDBFF030EEDCFA9
:10044000DBFFF90EDBCF0DF0FA0EDBCF0EF0020E64
:10045000DBCFE6FF030EDBCFE6FFDECFE6FFDDCF2F
:10046000E6FF04D00EC0FAFF0D50F96EFBDFE55237
:10047000E552E552E552F3CF0BF0F4CF0CF0010E4C
:10048000F31801E10C5033E0020EDBCFE9FF030E5D
:10049000DBCFEAFFEE50ED1019E1020EDBCFE9FFF2
:1004A000030EDBCFEAFFDECFEEFFDDCFEDFFFD0E6B
:1004B000DBCFE9FFFE0EDBCFEAFF020EE926000EDE
:1004C000EA22DECFEEFFDDCFEDFF5DD0020EDBCF07
:1004D00006F0030EDBCF07F0040E06C0DBFF050EAF
:1004E00007C0DBFF020EDBCFE9FF030EA2D7F90E38
:1004F000DBCF0DF0FA0EDBCF0EF0020EDBCFE6FF06
:10050000030EDBCFE6FFDECFE6FFDDCFE6FF04D054
:100510000EC0FAFF0D50F96EFBDFE552E552E552D1
:10052000E552F350F4102FE0020EDBCF0BF0030E78
:10053000DBCF0CF0FD0EDBCFE9FFFE0EDBCFEAFFD9
:10054000EECF0DF0EFCF0EF00D500B1808E10E506E
:100550000C1805E1FD0EDBCFE9FFFE0E04D0040E02
:10056000DBCFE9FF050EDBCFEAFFDECFEEFFDDCF0D
:10057000EDFFDECFE9FFDDCFEAFF020EDBCFEEFFBE
:10058000030EDBCFEDFF060EE15C02E2E16AE5520D
:0A059000E16EE552E7CFD9FF12003B
:06059A00D9CFE6FFE1CF1E
:1005A000D9FFFB0EDBCF0BF0FC0EDBCF0CF0030E04
:1005B000D8900B360C36E806FBE1FD0EDB500B2421
:1005C000E96EFE0EDB500C20EA6E040EE926000EEA
:1005D000EA22F90EDBCFEEFFFA0EDBCFEDFFFB0ECA
:1005E000DBCF0BF0FC0EDBCF0CF0030ED8900B36FC
:1005F0000C36E806FBE1FD0EDB500B24E96EFE0E27
:10060000DB500C20EA6EEE6AED6AFB0EDBCF0DF0DC
:10061000FC0EDBCF0EF00D06000E0E5AC80E0E02B9
:10062000F3CF0EF00D02F3CF0DF0F4500E26000EB6
:100630000D26020E0E221E0E0D26000E0E22FB0EA1
:10064000DBCF0BF0FC0EDBCF0CF0030ED8900B369B
:100650000C36E806FBE1FD0EDB500B24E96EFE0EC6
:10066000DB500C20EA6E060EE926000EEA220DC0D1
:10067000EEFF0EC0EDFFFB0EDBCF0BF0FC0EDBCF71
:100680000CF0030ED8900B360C36E806FBE1FD0E9D
:10069000DB500B24E96EFE0EDB500C20EA6E020EDE
:1006A000E926000EEA22EF6AFB0EDBCF0BF0FC0E10
:1006B000DBCF0CF0030ED8900B360C36E806FBE1CE
:1006C000FD0EDB500B24E96EFE0EDB500C20EA6EB3
:1006D000030EE926000EEA22FB0EDBCFEFFFDBCF95
:1006E0000BF0FC0EDBCF0CF00B06000E0C5AC80E04
:1006F0000C02F3CF0CF00B02F3CF0BF0F4500C26EE
:10070000000E0B26020E0C220CC00BF00C6AFB0E26
:10071000DBCFE9FFFC0EDBCFEAFFE906000EEA5A69
:10072000C80EEA02F3CFEAFFE902F3CFE9FFF45083
:10073000EA26000EE926020EEA22040EE926000E41
:10074000EA220BC0EFFF540EE66E020EE66EFB0EC1
:10075000DBCF0DF0FC0EDBCF0EF0030ED8900D3684
:100760000E36E806FBE1FD0EDB500D240B6EFE0E8F
:10077000DB500E200C6E0BC0E6FFE66EAA0EE66E96
:10078000030EE66EEFEC01F00F6E060EE15E0F5009
:10079000E552E7CFD9FF12000301AA6BAB6BAC6B3C
:1007A000AD6B920E906F030E916F90C3E9FFEA6EEE
:1007B000EE6AED6AF60EE66E070EE66E010EE66E66
:1007C000E66A920EE66E030EE66EE7DE0B6E060E2E
:1007D000E15E0B50440EE66E080EE66E020EE66E0B
:1007E000E66A920EE66E030EE66ED7DE0B6E060E1E
:1007F000E15E0B501200D9CFE6FFE1CFD9FF020E28
:10080000E126DE6ADD6ADECF0BF0DDCF0CF00D6A8B
:100810000CBE0D68A00E0B1805E1860E0C1802E147
:10082000010E0D1805E0DF2A010EEDE3DB2AEBD700
:10083000020EE15C02E2E16AE552E16EE552E7CFC9
:10084000D9FF1200D9CFE6FFE1CFD9FF020EE12692
:10085000DE6ADD6ADECF0BF0DDCF0CF00D6A0CBE78
:100860000D68A00E0B1805E1860E0C1802E1010EB2
:100870000D1805E0DF2A010EEDE3DB2AEBD7020EAF
:10088000E15C02E2E16AE552E16EE552E7CFD9FFB1
:02089000120054
:0E089200D9CFE6FFE1CFD9FFFD0EDBCFE9FFA6
:1008A000FE0EDBCFEAFFEECF0BF0EFCF0CF0120E17
:1008B0000B1801E10C5027E00E0E0B1801E10C5053
:1008C0000CE00B5020E10C501EE1FD0EDBCFE9FFE8
:1008D000FE0EDBCFEAFF0E0E14D0FD0EDBCFE9FFDC
:1008E000FE0EDBCFEAFF020EE926000EEA22EF50F1
:1008F0000A0809E1FD0EDBCFE9FFFE0EDBCFEAFFC0
:10090000120EEE6EED6AE552E7CFD9FF1200D9CF95
:10091000E6FFE1CFD9FFFD0EDBCFE9FFFE0EDBCF17
:10092000EAFFEECF0BF0EFCF0CF02A0E0B1801E12F
:100930000C5001E197D0230E0B1801E10C5021E07F
:10094000200E0B1801E10C501CE00B5001E0FED012
:100950000C5001E0FBD0FD0EDBCFE9FFFE0EDBCF3C
:10096000EAFF020EE926000EEA22010EEF6EA4EC69
:1009700008F0FD0EDBCFE9FFFE0EDBCFEAFF200E15
:10098000B7D0FD0EDBCFE9FFFE0EDBCFEAFF030E93
:10099000E926000EEA22EECF0FF0EECF10F0EECFF8
:1009A00011F0EFCF12F00FC0E6FF10C0E6FF11C04C
:1009B000E6FF12C0E6FF25EC09F0E552E7CF12F0A2
:1009C000E552E7CF11F0E552E7CF10F0E552E7CF5F
:1009D0000FF000010F50045C0B6E105005580C6EA8
:1009E000115006580D6E125007580E6ED880E80E42
:1009F0000B54010E0C54000E0D54000E0E5408E35F
:100A0000FD0EDBCFE9FFFE0EDBCFEAFF230E70D039
:100A1000A6EC08F025EC09F004C00BF005C00CF0C2
:100A200006C00DF007C00EF0FD0EDBCFE9FFFE0E95
:100A3000DBCFEAFF030EE926000EEA2204C0EEFF38
:100A40000CC0EEFF0DC0EEFF0EC0EEFFFD0EDBCFC3
:100A5000E9FFFE0EDBCFEAFF020EE926000EEA22D6
:100A6000020EEF6EFD0EDBCFE9FFFE0EDBCFEAFFDD
:100A7000030EE926000EEA22EECF0FF0EECF10F0C3
:100A8000EECF11F0EFCF12F00FC0E6FF10C0E6FF7F
:100A900011C0E6FF12C0E6FF25EC09F0E552E7CFF2
:100AA00012F0E552E7CF11F0E552E7CF10F0E55232
:100AB000E7CF0FF000010F50045C0B6E105005588B
:100AC0000C6E115006580D6E125007580E6ED880DD
:100AD000E80E0B54010E0C54000E0D54000E0E5473
:100AE0000AE3FD0EDBCFE9FFFE0EDBCFEAFF2A0EA5
:100AF000EE6EED6A2BD0A4EC08F025EC09F004C0F2
:100B00000BF005C00CF006C00DF007C00EF0FD0E96
:100B1000DBCFE9FFFE0EDBCFEAFF030EE926000E76
:100B2000EA2204C0EEFF0CC0EEFF0DC0EEFF0EC0C7
:100B3000EEFFFD0EDBCFE9FFFE0EDBCFEAFF020E7C
:100B4000E926000EEA22010EEF6E1BD7E552E7CF31
:040B5000D9FF1200B7
:0C0B5400D9CFE6FFE1CFD9FFFD0EDBCFCB
:100B6000E9FFFE0EDBCFEAFFEF6AFD0EDBCFE9FF08
:100B7000FE0EDBCFEAFFEE52EE6AEE6AEE6AEE6A36
:100B8000A2EC08F0E552E7CFD9FF1200D9CFE6FF7B
:100B9000E1CFD9FFFD0EDBCFE9FFFE0EDBCFEAFF91
:100BA000EF50010A01E178D0030A17E0020A01E0E0
:100BB000D1D0FD0EDBCFE9FFFE0EDBCFEAFF020E48
:100BC000EF6EFD0EDBCFE9FFFE0EDBCFEAFFEE524C
:100BD000EE6AEE6AEE6AEE6ABDD0FD0EDBCFE9FF8B
:100BE000FE0EDBCFEAFFEE52EECF0FF0EECF10F0AD
:100BF000EECF11F0EFCF12F00FC0E6FF10C0E6FF0E
:100C000011C0E6FF12C0E6FF25EC09F0E552E7CF80
:100C100012F0E552E7CF11F0E552E7CF10F0E552C0
:100C2000E7CF0FF000010F50045C0B6E1050055819
:100C30000C6E115006580D6E125007580E6EE80ECD
:100C40000B5C010E0C58000E0D58000E0E5801E200
:100C500081D025EC09F004C00BF005C00CF006C0F3
:100C60000DF007C00EF0FD0EDBCFE9FFFE0EDBCF6F
:100C7000EAFFEE5204C0EEFF0CC0EEFF0DC0EEFF27
:100C80000EC0EEFFA6EC08F0FD0EDBCFE9FFFE0E76
:100C9000DBCFEAFF010E5DD0FD0EDBCFE9FFFE0EDC
:100CA000DBCFEAFFEE52EECF0FF0EECF10F0EECF3B
:100CB00011F0EFCF12F00FC0E6FF10C0E6FF11C039
:100CC000E6FF12C0E6FF25EC09F0E552E7CF12F08F
:100CD000E552E7CF11F0E552E7CF10F0E552E7CF4C
:100CE0000FF000010F50045C0B6E105005580C6E95
:100CF000115006580D6E125007580E6EE80E0B5C20
:100D0000010E0C58000E0D58000E0E5823E325EC72
:100D100009F004C00BF005C00CF006C00DF007C0D0
:100D20000EF0FD0EDBCFE9FFFE0EDBCFEAFFEE5249
:100D300004C0EEFF0CC0EEFF0DC0EEFF0EC0EEFFD4
:100D4000A4EC08F0FD0EDBCFE9FFFE0EDBCFEAFFDF
:0C0D5000020EEF6EE552E7CFD9FF120053
:040D5C00D9CFE6FF06
:100D6000E1CFD9FF9494FD0EDBCFE9FFFE0EDBCF80
:100D7000EAFFEF6AE552E7CFD9FF12008284120042
:100D800082941200D9CFE6FFE1CFD9FFFD0EDBCF71
:100D9000E9FFFE0EDBCFEAFFEF50010A3EE0010A59
:100DA00001E0D1D0FD0EDBCFE9FFFE0EDBCFEAFF85
:100DB000010EEB6A020EEB6A25EC09F004C00BF0A1
:100DC00005C00CF006C00DF007C00EF0FD0EDBCF25
:100DD000E9FFFE0EDBCFEAFF030EE926000EEA2252
:100DE00004C0EEFF0CC0EEFF0DC0EEFF0EC0EEFF24
:100DF000FD0EDBCFE9FFFE0EDBCFEAFFEE52EE5039
:100E0000EFCFEAFFE96EAE0EE926030EEA22EF50BD
:100E1000E66EC7EC08F0E5528ED0FD0EDBCFE9FFA1
:100E2000FE0EDBCFEAFF030EE926000EEA22EECF2C
:100E30000FF0EECF10F0EECF11F0EFCF12F00FC0A9
:100E4000E6FF10C0E6FF11C0E6FF12C0E6FF25EC8A
:100E500009F0E552E7CF12F0E552E7CF11F0E55285
:100E6000E7CF10F0E552E7CF0FF000010F50045C20
:100E70000B6E105005580C6E115006580D6E125026
:100E800007580E6EE80E0B5C010E0C58000E0D5844
:100E9000000E0E583AE325EC09F004C00BF005C033
:100EA0000CF006C00DF007C00EF0FD0EDBCFE9FF21
:100EB000FE0EDBCFEAFF030EE926000EEA2204C095
:100EC000EEFF0CC0EEFF0DC0EEFF0EC0EEFFFD0EFC
:100ED000DBCFE9FFFE0EDBCFEAFFEE52EE50EFCFA5
:100EE000EAFFE96EAE0EE926030EEA22EF50E66E47
:100EF000C7EC08F0E552FD0EDBCFE9FFFE0EDBCFBD
:100F0000EAFFEE52EE2A000EEF22FD0EDBCFE9FFE4
:100F1000FE0EDBCFEAFFEE52100EEE180CE1ED50A4
:100F20000AE1FD0EDBCFE9FFFE0EDBCFEAFF010E8B
:100F3000EB6A020EEB6AFD0EDBCFE9FFFE0EDBCFA4
:0E0F4000EAFF010EEF6EE552E7CFD9FF120077
:020F4E00D9CFF9
:100F5000E6FFE1CFD9FFFD0EDBCFE9FFFE0EDBCFD1
:100F6000EAFFEF6AFD0EDBCFE9FFFE0EDBCFEAFF03
:100F7000EE52EF6AE552E7CFD9FF1200D9CFE6FF74
:100F8000E1CFD9FFFD0EDBCFE9FFFE0EDBCFEAFF9D
:100F9000EF50010A1AE0010A32E19EAA30D0A8EC13
:100FA00008F0E66EFD0EDBCFE9FFFE0EDBCFEAFFB9
:100FB000EE52E552E750EF6EFD0EDBCFE9FFFE0E7D
:100FC000DBCFEAFF010EEF6E1AD0AC50020B020A23
:100FD00001E0010E010813E0FD0EDBCFE9FFFE0E7C
:100FE000DBCFEAFFEE52EF50E66E01EC09F0E5527E
:100FF000FD0EDBCFE9FFFE0EDBCFEAFFEF6AE55225
:06100000E7CFD9FF12004A
:0A1006003A0EF66E020EF76E000EB1
:10101000F86E03010900F550C36F0900F550C46F65
:1010200003E1C36701D03DD00900F550BE6F090050
:10103000F550BF6F0900F550C06F09000900F55069
:10104000E96E0900F550EA6E090009000900F55043
:10105000C16F0900F550C26F09000900F6CFC5F352
:10106000F7CFC6F3F8CFC7F3BEC3F6FFBFC3F7FF92
:10107000C0C3F8FF0301C15302E1C25307E00900F6
:10108000F550EE6EC107F8E2C207F9D7C5C3F6FF07
:10109000C6C3F7FFC7C3F8FF0301C307000EC45B55
:0410A000BFD71200A4
:0C10A400D9CFE6FFE1CFD9FF020EE12614
:1010B000DE6ADD6ACCEC03F018EC09F0DECF0BF051
:1010C000DDCF0CF00D6A0CBE0D68A00E0B1805E10B
:1010D000860E0C1802E1010E0D1805E0DF2A010E44
:1010E000EDE3DB2AEBD7020EE15C02E2E16AE552B6
:0A10F000E16EE552E7CFD9FF1200D0
:0610FA00D9CFE6FFE1CFB3
:10110000D9FF020EE126DE6ADD6ADE6ADD6ADECF25
:101110000BF0DDCF0CF0D8900C5004E6880E0B5C81
:10112000130E0C5805E2DF2A010EF1E3DB2AEFD79C
:10113000020EE15C02E2E16AE552E16EE552E7CFC0
:10114000D9FF12009390120081801200819012004A
:10115000D9CFE6FFDACFE6FFE1CFD9FFE2CFDAFF62
:10116000E652F20E0301D617ABAC03D0D691ABB06A
:10117000D681ABB4D685ABB2D687AE50DF6EDF502A
:0E118000E552E552E5CFDAFFE7CFD9FF1200C6
:02118E00D9CFB7
:10119000E6FFDACFE6FFE1CFD9FFE2CFDAFFE65292
:1011A000C950DF6E9E96C69EFD0EDB50C96EC6AE60
:1011B00002D0FF0E03D09EA6FED7000EE552E552E8
:0A11C000E5CFDAFFE7CFD9FF1200F8
:0611CA00D9CFE6FFDACFE9
:1011D000E6FFE1CFD9FFE2CFDAFFFD0EDB507F0B58
:1011E000D56ED76AD66AF294FD0EDBAE02D0F28AD3
:1011F00001D0F29AD58EE552E5CFDAFFE7CFD9FFDD
:021200001200DA
:0E120200D9CFE6FFDACFE6FFE1CFD9FFE2CF8A
:10121000DAFFACAC04D0AC900301D6B3AC80FD0EC9
:10122000DB50AD6EE552E5CFDAFFE7CFD9FF120014
:101230000301C86BC96BCA6BCB6BF28ED20EE66E24
:10124000E5EC08F0E552F2941200C8C304F0C9C3FB
:0C12500005F0CAC306F0CBC307F0120083
:04125C00000EF36E1F
:1012600000EE00F0060E01D81200EA6002D0EE6A2D
:0C127000FCD7F350E9601200EE6AFCD7D6
:04127C0015EE00F07B
:1012800025EE00F0F86A0A9C03EC08F003EC00F08D
:0812900052EC08F0FBD712003C
:081298007714B3B6D4E6E73485
:0812A000F7F4F5C76397E3E1E1
:0812A80000000000000000003E
:020000040030CA
:0100010008F6
:010002001EDF
:010003001EDE
:0100060001F8
:00000001FF
